{
  "_format": "hh-sol-artifact-1",
  "contractName": "Booklist",
  "sourceName": "contracts/Booklist.sol",
  "abi": [
    {
      "anonymous": false,
      "inputs": [
        {
          "indexed": false,
          "internalType": "address",
          "name": "bookRecipient",
          "type": "address"
        },
        {
          "indexed": false,
          "internalType": "uint256",
          "name": "bookId",
          "type": "uint256"
        }
      ],
      "name": "AddBook",
      "type": "event"
    },
    {
      "anonymous": false,
      "inputs": [
        {
          "indexed": false,
          "internalType": "uint256",
          "name": "bookId",
          "type": "uint256"
        },
        {
          "indexed": false,
          "internalType": "bool",
          "name": "bookFinished",
          "type": "bool"
        }
      ],
      "name": "SetFinished",
      "type": "event"
    },
    {
      "inputs": [
        {
          "internalType": "string",
          "name": "name",
          "type": "string"
        },
        {
          "internalType": "uint256",
          "name": "year",
          "type": "uint256"
        },
        {
          "internalType": "string",
          "name": "author",
          "type": "string"
        },
        {
          "internalType": "bool",
          "name": "isCompleted",
          "type": "bool"
        }
      ],
      "name": "addBook",
      "outputs": [],
      "stateMutability": "nonpayable",
      "type": "function"
    },
    {
      "inputs": [
        {
          "internalType": "bool",
          "name": "finished",
          "type": "bool"
        }
      ],
      "name": "getBookList",
      "outputs": [
        {
          "components": [
            {
              "internalType": "uint256",
              "name": "id",
              "type": "uint256"
            },
            {
              "internalType": "string",
              "name": "name",
              "type": "string"
            },
            {
              "internalType": "uint256",
              "name": "year",
              "type": "uint256"
            },
            {
              "internalType": "string",
              "name": "author",
              "type": "string"
            },
            {
              "internalType": "bool",
              "name": "isCompleted",
              "type": "bool"
            }
          ],
          "internalType": "struct Booklist.Book[]",
          "name": "",
          "type": "tuple[]"
        }
      ],
      "stateMutability": "view",
      "type": "function"
    },
    {
      "inputs": [],
      "name": "getFinishedBook",
      "outputs": [
        {
          "components": [
            {
              "internalType": "uint256",
              "name": "id",
              "type": "uint256"
            },
            {
              "internalType": "string",
              "name": "name",
              "type": "string"
            },
            {
              "internalType": "uint256",
              "name": "year",
              "type": "uint256"
            },
            {
              "internalType": "string",
              "name": "author",
              "type": "string"
            },
            {
              "internalType": "bool",
              "name": "isCompleted",
              "type": "bool"
            }
          ],
          "internalType": "struct Booklist.Book[]",
          "name": "",
          "type": "tuple[]"
        }
      ],
      "stateMutability": "view",
      "type": "function"
    },
    {
      "inputs": [],
      "name": "getUnfinishedBook",
      "outputs": [
        {
          "components": [
            {
              "internalType": "uint256",
              "name": "id",
              "type": "uint256"
            },
            {
              "internalType": "string",
              "name": "name",
              "type": "string"
            },
            {
              "internalType": "uint256",
              "name": "year",
              "type": "uint256"
            },
            {
              "internalType": "string",
              "name": "author",
              "type": "string"
            },
            {
              "internalType": "bool",
              "name": "isCompleted",
              "type": "bool"
            }
          ],
          "internalType": "struct Booklist.Book[]",
          "name": "",
          "type": "tuple[]"
        }
      ],
      "stateMutability": "view",
      "type": "function"
    },
    {
      "inputs": [
        {
          "internalType": "uint256",
          "name": "_bookId",
          "type": "uint256"
        }
      ],
      "name": "setCompleted",
      "outputs": [],
      "stateMutability": "nonpayable",
      "type": "function"
    }
  ],
  "bytecode": "0x608060405234801561001057600080fd5b506112d8806100206000396000f3fe608060405234801561001057600080fd5b50600436106100575760003560e01c80630cc2de1a1461005c578063a8bbee8a1461008c578063b75b4e5a146100aa578063fb144612146100c8578063fdacd576146100e4575b600080fd5b6100766004803603810190610071919061087f565b610100565b6040516100839190610aa3565b60405180910390f35b6100946104af565b6040516100a19190610aa3565b60405180910390f35b6100b26104c0565b6040516100bf9190610aa3565b60405180910390f35b6100e260048036038101906100dd9190610c26565b6104d1565b005b6100fe60048036038101906100f99190610cc5565b610622565b005b60606000805b6000805490508110156101d7573373ffffffffffffffffffffffffffffffffffffffff166001600083815260200190815260200160002060009054906101000a900473ffffffffffffffffffffffffffffffffffffffff1673ffffffffffffffffffffffffffffffffffffffff161480156101b657508315156000828154811061019357610192610cf2565b5b906000526020600020906005020160040160009054906101000a900460ff161515145b156101ca5781806101c690610d50565b9250505b8080600101915050610106565b5060008167ffffffffffffffff8111156101f4576101f3610acf565b5b60405190808252806020026020018201604052801561022d57816020015b61021a610802565b8152602001906001900390816102125790505b5090506000805b6000805490508110156104a3573373ffffffffffffffffffffffffffffffffffffffff166001600083815260200190815260200160002060009054906101000a900473ffffffffffffffffffffffffffffffffffffffff1673ffffffffffffffffffffffffffffffffffffffff161480156102e45750851515600082815481106102c1576102c0610cf2565b5b906000526020600020906005020160040160009054906101000a900460ff161515145b1561049657600081815481106102fd576102fc610cf2565b5b90600052602060002090600502016040518060a00160405290816000820154815260200160018201805461033090610dc7565b80601f016020809104026020016040519081016040528092919081815260200182805461035c90610dc7565b80156103a95780601f1061037e576101008083540402835291602001916103a9565b820191906000526020600020905b81548152906001019060200180831161038c57829003601f168201915b50505050508152602001600282015481526020016003820180546103cc90610dc7565b80601f01602080910402602001604051908101604052809291908181526020018280546103f890610dc7565b80156104455780601f1061041a57610100808354040283529160200191610445565b820191906000526020600020905b81548152906001019060200180831161042857829003601f168201915b505050505081526020016004820160009054906101000a900460ff16151515158152505083838151811061047c5761047b610cf2565b5b6020026020010181905250818061049290610d50565b9250505b8080600101915050610234565b50819350505050919050565b60606104bb6001610100565b905090565b60606104cc6000610100565b905090565b60008080549050905060006040518060a00160405280838152602001878152602001868152602001858152602001841515815250908060018154018082558091505060019003906000526020600020906005020160009091909190915060008201518160000155602082015181600101908161054d9190610fa4565b5060408201518160020155606082015181600301908161056d9190610fa4565b5060808201518160040160006101000a81548160ff0219169083151502179055505050336001600083815260200190815260200160002060006101000a81548173ffffffffffffffffffffffffffffffffffffffff021916908373ffffffffffffffffffffffffffffffffffffffff1602179055507f10545577c692a22f651e69221c47ad4418e40434b36f4e2411bc54007aa8cbb933826040516106139291906110c6565b60405180910390a15050505050565b80600080549050811061066a576040517f08c379a00000000000000000000000000000000000000000000000000000000081526004016106619061114c565b60405180910390fd5b816001600082815260200190815260200160002060009054906101000a900473ffffffffffffffffffffffffffffffffffffffff1673ffffffffffffffffffffffffffffffffffffffff163373ffffffffffffffffffffffffffffffffffffffff161461070c576040517f08c379a0000000000000000000000000000000000000000000000000000000008152600401610703906111b8565b60405180910390fd5b600015156000848154811061072457610723610cf2565b5b906000526020600020906005020160040160009054906101000a900460ff16151514610785576040517f08c379a000000000000000000000000000000000000000000000000000000000815260040161077c9061124a565b60405180910390fd5b60016000848154811061079b5761079a610cf2565b5b906000526020600020906005020160040160006101000a81548160ff0219169083151502179055507fa4f349f92993cc89f62be8c4bead1bd7d76d2e9c4d05da59739c6e0dd75f042c8360016040516107f5929190611279565b60405180910390a1505050565b6040518060a00160405280600081526020016060815260200160008152602001606081526020016000151581525090565b6000604051905090565b600080fd5b600080fd5b60008115159050919050565b61085c81610847565b811461086757600080fd5b50565b60008135905061087981610853565b92915050565b6000602082840312156108955761089461083d565b5b60006108a38482850161086a565b91505092915050565b600081519050919050565b600082825260208201905092915050565b6000819050602082019050919050565b6000819050919050565b6108eb816108d8565b82525050565b600081519050919050565b600082825260208201905092915050565b60005b8381101561092b578082015181840152602081019050610910565b60008484015250505050565b6000601f19601f8301169050919050565b6000610953826108f1565b61095d81856108fc565b935061096d81856020860161090d565b61097681610937565b840191505092915050565b61098a81610847565b82525050565b600060a0830160008301516109a860008601826108e2565b50602083015184820360208601526109c08282610948565b91505060408301516109d560408601826108e2565b50606083015184820360608601526109ed8282610948565b9150506080830151610a026080860182610981565b508091505092915050565b6000610a198383610990565b905092915050565b6000602082019050919050565b6000610a39826108ac565b610a4381856108b7565b935083602082028501610a55856108c8565b8060005b85811015610a915784840389528151610a728582610a0d565b9450610a7d83610a21565b925060208a01995050600181019050610a59565b50829750879550505050505092915050565b60006020820190508181036000830152610abd8184610a2e565b905092915050565b600080fd5b600080fd5b7f4e487b7100000000000000000000000000000000000000000000000000000000600052604160045260246000fd5b610b0782610937565b810181811067ffffffffffffffff82111715610b2657610b25610acf565b5b80604052505050565b6000610b39610833565b9050610b458282610afe565b919050565b600067ffffffffffffffff821115610b6557610b64610acf565b5b610b6e82610937565b9050602081019050919050565b82818337600083830152505050565b6000610b9d610b9884610b4a565b610b2f565b905082815260208101848484011115610bb957610bb8610aca565b5b610bc4848285610b7b565b509392505050565b600082601f830112610be157610be0610ac5565b5b8135610bf1848260208601610b8a565b91505092915050565b610c03816108d8565b8114610c0e57600080fd5b50565b600081359050610c2081610bfa565b92915050565b60008060008060808587031215610c4057610c3f61083d565b5b600085013567ffffffffffffffff811115610c5e57610c5d610842565b5b610c6a87828801610bcc565b9450506020610c7b87828801610c11565b935050604085013567ffffffffffffffff811115610c9c57610c9b610842565b5b610ca887828801610bcc565b9250506060610cb98782880161086a565b91505092959194509250565b600060208284031215610cdb57610cda61083d565b5b6000610ce984828501610c11565b91505092915050565b7f4e487b7100000000000000000000000000000000000000000000000000000000600052603260045260246000fd5b7f4e487b7100000000000000000000000000000000000000000000000000000000600052601160045260246000fd5b6000610d5b826108d8565b91507fffffffffffffffffffffffffffffffffffffffffffffffffffffffffffffffff8203610d8d57610d8c610d21565b5b600182019050919050565b7f4e487b7100000000000000000000000000000000000000000000000000000000600052602260045260246000fd5b60006002820490506001821680610ddf57607f821691505b602082108103610df257610df1610d98565b5b50919050565b60008190508160005260206000209050919050565b60006020601f8301049050919050565b600082821b905092915050565b600060088302610e5a7fffffffffffffffffffffffffffffffffffffffffffffffffffffffffffffffff82610e1d565b610e648683610e1d565b95508019841693508086168417925050509392505050565b6000819050919050565b6000610ea1610e9c610e97846108d8565b610e7c565b6108d8565b9050919050565b6000819050919050565b610ebb83610e86565b610ecf610ec782610ea8565b848454610e2a565b825550505050565b600090565b610ee4610ed7565b610eef818484610eb2565b505050565b5b81811015610f1357610f08600082610edc565b600181019050610ef5565b5050565b601f821115610f5857610f2981610df8565b610f3284610e0d565b81016020851015610f41578190505b610f55610f4d85610e0d565b830182610ef4565b50505b505050565b600082821c905092915050565b6000610f7b60001984600802610f5d565b1980831691505092915050565b6000610f948383610f6a565b9150826002028217905092915050565b610fad826108f1565b67ffffffffffffffff811115610fc657610fc5610acf565b5b610fd08254610dc7565b610fdb828285610f17565b600060209050601f83116001811461100e5760008415610ffc578287015190505b6110068582610f88565b86555061106e565b601f19841661101c86610df8565b60005b828110156110445784890151825560018201915060208501945060208101905061101f565b86831015611061578489015161105d601f891682610f6a565b8355505b6001600288020188555050505b505050505050565b600073ffffffffffffffffffffffffffffffffffffffff82169050919050565b60006110a182611076565b9050919050565b6110b181611096565b82525050565b6110c0816108d8565b82525050565b60006040820190506110db60008301856110a8565b6110e860208301846110b7565b9392505050565b600082825260208201905092915050565b7f426f6f6b20646f6573206e6f7420657869737400000000000000000000000000600082015250565b60006111366013836110ef565b915061114182611100565b602082019050919050565b6000602082019050818103600083015261116581611129565b9050919050565b7f4e6f74426f6f6b4f776e65722829000000000000000000000000000000000000600082015250565b60006111a2600e836110ef565b91506111ad8261116c565b602082019050919050565b600060208201905081810360008301526111d181611195565b9050919050565b7f426f6f6b20697320616c7265616479206d61726b656420617320636f6d706c6560008201527f7465640000000000000000000000000000000000000000000000000000000000602082015250565b60006112346023836110ef565b915061123f826111d8565b604082019050919050565b6000602082019050818103600083015261126381611227565b9050919050565b61127381610847565b82525050565b600060408201905061128e60008301856110b7565b61129b602083018461126a565b939250505056fea2646970667358221220bd4957b1110f27ccf285105a83a330173b3a18c0312d704b179ebeb2f0e07e4664736f6c63430008180033",
  "linkReferences": {},
  "deployedLinkReferences": {}
}