{
  "_format": "hh-sol-artifact-1",
  "contractName": "Certify",
  "sourceName": "contracts/Certify.sol",
  "abi": [
    {
      "inputs": [],
      "stateMutability": "nonpayable",
      "type": "constructor"
    },
    {
      "anonymous": false,
      "inputs": [
        {
          "indexed": true,
          "internalType": "address",
          "name": "owner",
          "type": "address"
        },
        {
          "indexed": false,
          "internalType": "string",
          "name": "identifier",
          "type": "string"
        },
        {
          "indexed": false,
          "internalType": "string",
          "name": "concatenatedString",
          "type": "string"
        }
      ],
      "name": "CertificateStored",
      "type": "event"
    },
    {
      "inputs": [
        {
          "internalType": "address",
          "name": "",
          "type": "address"
        },
        {
          "internalType": "string",
          "name": "",
          "type": "string"
        }
      ],
      "name": "certificates",
      "outputs": [
        {
          "internalType": "string",
          "name": "",
          "type": "string"
        }
      ],
      "stateMutability": "view",
      "type": "function"
    },
    {
      "inputs": [
        {
          "internalType": "address",
          "name": "certiOwner",
          "type": "address"
        },
        {
          "internalType": "string",
          "name": "_identifier",
          "type": "string"
        },
        {
          "internalType": "string",
          "name": "_hash",
          "type": "string"
        }
      ],
      "name": "getIPFSHash",
      "outputs": [
        {
          "internalType": "string",
          "name": "_certi",
          "type": "string"
        }
      ],
      "stateMutability": "view",
      "type": "function"
    },
    {
      "inputs": [
        {
          "internalType": "string",
          "name": "identifier",
          "type": "string"
        },
        {
          "internalType": "string",
          "name": "_hash",
          "type": "string"
        }
      ],
      "name": "storeCertificate",
      "outputs": [
        {
          "internalType": "string",
          "name": "",
          "type": "string"
        }
      ],
      "stateMutability": "nonpayable",
      "type": "function"
    }
  ],
  "bytecode": "0x608060405234801561001057600080fd5b50336000806101000a81548173ffffffffffffffffffffffffffffffffffffffff021916908373ffffffffffffffffffffffffffffffffffffffff160217905550611199806100606000396000f3fe608060405234801561001057600080fd5b50600436106100415760003560e01c806363e7e85b14610046578063678d364414610076578063aa135fd3146100a6575b600080fd5b610060600480360381019061005b9190610b2d565b6100d6565b60405161006d9190610c11565b60405180910390f35b610090600480360381019061008b9190610c33565b610199565b60405161009d9190610c11565b60405180910390f35b6100c060048036038101906100bb9190610cab565b610354565b6040516100cd9190610c11565b60405180910390f35b60016020528160005260406000208180516020810182018051848252602083016020850120818352809550505050505060009150915050805461011890610d65565b80601f016020809104026020016040519081016040528092919081815260200182805461014490610d65565b80156101915780601f1061016657610100808354040283529160200191610191565b820191906000526020600020905b81548152906001019060200180831161017457829003601f168201915b505050505081565b60608180519060200120600160003373ffffffffffffffffffffffffffffffffffffffff1673ffffffffffffffffffffffffffffffffffffffff168152602001908152602001600020846040516101f09190610dd3565b908152602001604051809103902060405161020b9190610e89565b60405180910390201415610254576040517f08c379a000000000000000000000000000000000000000000000000000000000815260040161024b90610eec565b60405180910390fd5b81600160003373ffffffffffffffffffffffffffffffffffffffff1673ffffffffffffffffffffffffffffffffffffffff168152602001908152602001600020846040516102a29190610dd3565b908152602001604051809103902090805190602001906102c39291906108d2565b5060006102cf336105c7565b905060008185856040516020016102e893929190610f0c565b60405160208183030381529060405290503373ffffffffffffffffffffffffffffffffffffffff167faa15db9b80143f1b3fc123d49131d36d7bd397f919eb3d1ae135ae96d557999f8683604051610341929190610f3d565b60405180910390a2809250505092915050565b60608180519060200120600160008673ffffffffffffffffffffffffffffffffffffffff1673ffffffffffffffffffffffffffffffffffffffff168152602001908152602001600020846040516103ab9190610dd3565b90815260200160405180910390206040516103c69190610e89565b604051809103902014156105855760006040518060600160405280602281526020016111426022913990506000819050600084905060008151835161040b9190610fad565b67ffffffffffffffff81111561042457610423610a02565b5b6040519080825280601f01601f1916602001820160405280156104565781602001600182028036833780820191505090505b5090506000805b84518110156104e55784818151811061047957610478611003565b5b602001015160f81c60f81b83838061049090611032565b9450815181106104a3576104a2611003565b5b60200101907effffffffffffffffffffffffffffffffffffffffffffffffffffffffffffff1916908160001a90535080806104dd90611032565b91505061045d565b5060005b83518110156105715783818151811061050557610504611003565b5b602001015160f81c60f81b83838061051c90611032565b94508151811061052f5761052e611003565b5b60200101907effffffffffffffffffffffffffffffffffffffffffffffffffffffffffffff1916908160001a905350808061056990611032565b9150506104e9565b5060008290508096505050505050506105c0565b6040517f08c379a00000000000000000000000000000000000000000000000000000000081526004016105b7906110c7565b60405180910390fd5b9392505050565b606060008273ffffffffffffffffffffffffffffffffffffffff1660001b905060006040518060400160405280601081526020017f303132333435363738396162636465660000000000000000000000000000000081525090506000602a67ffffffffffffffff81111561063e5761063d610a02565b5b6040519080825280601f01601f1916602001820160405280156106705781602001600182028036833780820191505090505b5090507f3000000000000000000000000000000000000000000000000000000000000000816000815181106106a8576106a7611003565b5b60200101907effffffffffffffffffffffffffffffffffffffffffffffffffffffffffffff1916908160001a9053507f78000000000000000000000000000000000000000000000000000000000000008160018151811061070c5761070b611003565b5b60200101907effffffffffffffffffffffffffffffffffffffffffffffffffffffffffffff1916908160001a90535060005b60148110156108c65782600485600c846107589190610fad565b6020811061076957610768611003565b5b1a60f81b7effffffffffffffffffffffffffffffffffffffffffffffffffffffffffffff1916901c60f81c60ff16815181106107a8576107a7611003565b5b602001015160f81c60f81b826002836107c191906110e7565b60026107cd9190610fad565b815181106107de576107dd611003565b5b60200101907effffffffffffffffffffffffffffffffffffffffffffffffffffffffffffff1916908160001a90535082600f60f81b85600c846108219190610fad565b6020811061083257610831611003565b5b1a60f81b1660f81c60ff168151811061084e5761084d611003565b5b602001015160f81c60f81b8260028361086791906110e7565b60036108739190610fad565b8151811061088457610883611003565b5b60200101907effffffffffffffffffffffffffffffffffffffffffffffffffffffffffffff1916908160001a90535080806108be90611032565b91505061073e565b50809350505050919050565b8280546108de90610d65565b90600052602060002090601f0160209004810192826109005760008555610947565b82601f1061091957805160ff1916838001178555610947565b82800160010185558215610947579182015b8281111561094657825182559160200191906001019061092b565b5b5090506109549190610958565b5090565b5b80821115610971576000816000905550600101610959565b5090565b6000604051905090565b600080fd5b600080fd5b600073ffffffffffffffffffffffffffffffffffffffff82169050919050565b60006109b482610989565b9050919050565b6109c4816109a9565b81146109cf57600080fd5b50565b6000813590506109e1816109bb565b92915050565b600080fd5b600080fd5b6000601f19601f8301169050919050565b7f4e487b7100000000000000000000000000000000000000000000000000000000600052604160045260246000fd5b610a3a826109f1565b810181811067ffffffffffffffff82111715610a5957610a58610a02565b5b80604052505050565b6000610a6c610975565b9050610a788282610a31565b919050565b600067ffffffffffffffff821115610a9857610a97610a02565b5b610aa1826109f1565b9050602081019050919050565b82818337600083830152505050565b6000610ad0610acb84610a7d565b610a62565b905082815260208101848484011115610aec57610aeb6109ec565b5b610af7848285610aae565b509392505050565b600082601f830112610b1457610b136109e7565b5b8135610b24848260208601610abd565b91505092915050565b60008060408385031215610b4457610b4361097f565b5b6000610b52858286016109d2565b925050602083013567ffffffffffffffff811115610b7357610b72610984565b5b610b7f85828601610aff565b9150509250929050565b600081519050919050565b600082825260208201905092915050565b60005b83811015610bc3578082015181840152602081019050610ba8565b83811115610bd2576000848401525b50505050565b6000610be382610b89565b610bed8185610b94565b9350610bfd818560208601610ba5565b610c06816109f1565b840191505092915050565b60006020820190508181036000830152610c2b8184610bd8565b905092915050565b60008060408385031215610c4a57610c4961097f565b5b600083013567ffffffffffffffff811115610c6857610c67610984565b5b610c7485828601610aff565b925050602083013567ffffffffffffffff811115610c9557610c94610984565b5b610ca185828601610aff565b9150509250929050565b600080600060608486031215610cc457610cc361097f565b5b6000610cd2868287016109d2565b935050602084013567ffffffffffffffff811115610cf357610cf2610984565b5b610cff86828701610aff565b925050604084013567ffffffffffffffff811115610d2057610d1f610984565b5b610d2c86828701610aff565b9150509250925092565b7f4e487b7100000000000000000000000000000000000000000000000000000000600052602260045260246000fd5b60006002820490506001821680610d7d57607f821691505b60208210811415610d9157610d90610d36565b5b50919050565b600081905092915050565b6000610dad82610b89565b610db78185610d97565b9350610dc7818560208601610ba5565b80840191505092915050565b6000610ddf8284610da2565b915081905092915050565b600081905092915050565b60008190508160005260206000209050919050565b60008154610e1781610d65565b610e218186610dea565b94506001821660008114610e3c5760018114610e4d57610e80565b60ff19831686528186019350610e80565b610e5685610df5565b60005b83811015610e7857815481890152600182019150602081019050610e59565b838801955050505b50505092915050565b6000610e958284610e0a565b915081905092915050565b7f54686520636572746966696361746520616c7265616479206578697374730000600082015250565b6000610ed6601e83610b94565b9150610ee182610ea0565b602082019050919050565b60006020820190508181036000830152610f0581610ec9565b9050919050565b6000610f188286610da2565b9150610f248285610da2565b9150610f308284610da2565b9150819050949350505050565b60006040820190508181036000830152610f578185610bd8565b90508181036020830152610f6b8184610bd8565b90509392505050565b6000819050919050565b7f4e487b7100000000000000000000000000000000000000000000000000000000600052601160045260246000fd5b6000610fb882610f74565b9150610fc383610f74565b9250827fffffffffffffffffffffffffffffffffffffffffffffffffffffffffffffffff03821115610ff857610ff7610f7e565b5b828201905092915050565b7f4e487b7100000000000000000000000000000000000000000000000000000000600052603260045260246000fd5b600061103d82610f74565b91507fffffffffffffffffffffffffffffffffffffffffffffffffffffffffffffffff8214156110705761106f610f7e565b5b600182019050919050565b7f4365727469666963617465206e6f7420666f756e640000000000000000000000600082015250565b60006110b1601583610b94565b91506110bc8261107b565b602082019050919050565b600060208201905081810360008301526110e0816110a4565b9050919050565b60006110f282610f74565b91506110fd83610f74565b9250817fffffffffffffffffffffffffffffffffffffffffffffffffffffffffffffffff048311821515161561113657611135610f7e565b5b82820290509291505056fe68747470733a2f2f676174657761792e70696e6174612e636c6f75642f697066732fa26469706673582212202b820fe4c0834e318b6557a14e0bf91c773534e8f328053333bfaa9ecc131bfa64736f6c634300080b0033",
  "linkReferences": {},
  "deployedLinkReferences": {}
}