{
  "_format": "hh-sol-artifact-1",
  "contractName": "IPFSStorage",
  "sourceName": "contracts/Certify.sol",
  "abi": [
    {
      "inputs": [],
      "stateMutability": "nonpayable",
      "type": "constructor"
    },
    {
      "anonymous": false,
      "inputs": [
        {
          "indexed": true,
          "internalType": "address",
          "name": "owner",
          "type": "address"
        },
        {
          "indexed": true,
          "internalType": "uint256",
          "name": "identifier",
          "type": "uint256"
        },
        {
          "indexed": false,
          "internalType": "string",
          "name": "concatenatedString",
          "type": "string"
        }
      ],
      "name": "CertificateStored",
      "type": "event"
    },
    {
      "anonymous": false,
      "inputs": [
        {
          "indexed": false,
          "internalType": "string",
          "name": "concatenatedString",
          "type": "string"
        }
      ],
      "name": "getCertificate",
      "type": "event"
    },
    {
      "inputs": [
        {
          "internalType": "address",
          "name": "",
          "type": "address"
        },
        {
          "internalType": "uint256",
          "name": "",
          "type": "uint256"
        }
      ],
      "name": "certificates",
      "outputs": [
        {
          "internalType": "string",
          "name": "",
          "type": "string"
        }
      ],
      "stateMutability": "view",
      "type": "function"
    },
    {
      "inputs": [
        {
          "internalType": "string",
          "name": "identifier",
          "type": "string"
        }
      ],
      "name": "getIPFSHash",
      "outputs": [
        {
          "internalType": "string",
          "name": "_certi",
          "type": "string"
        }
      ],
      "stateMutability": "nonpayable",
      "type": "function"
    },
    {
      "inputs": [
        {
          "internalType": "uint256",
          "name": "identifier",
          "type": "uint256"
        },
        {
          "internalType": "string",
          "name": "_hash",
          "type": "string"
        }
      ],
      "name": "storeCertificate",
      "outputs": [
        {
          "internalType": "string",
          "name": "",
          "type": "string"
        }
      ],
      "stateMutability": "nonpayable",
      "type": "function"
    }
  ],
  "bytecode": "0x608060405234801561001057600080fd5b50336000806101000a81548173ffffffffffffffffffffffffffffffffffffffff021916908373ffffffffffffffffffffffffffffffffffffffff16021790555061189f806100606000396000f3fe608060405234801561001057600080fd5b50600436106100415760003560e01c806346f3141c146100465780634a5f66c114610076578063779579f2146100a6575b600080fd5b610060600480360381019061005b919061104c565b6100d6565b60405161006d9190611125565b60405180910390f35b610090600480360381019061008b919061127c565b610183565b60405161009d9190611125565b60405180910390f35b6100c060048036038101906100bb91906112c5565b610437565b6040516100cd9190611125565b60405180910390f35b600160205281600052604060002060205280600052604060002060009150915050805461010290611350565b80601f016020809104026020016040519081016040528092919081815260200182805461012e90611350565b801561017b5780601f106101505761010080835404028352916020019161017b565b820191906000526020600020905b81548152906001019060200180831161015e57829003601f168201915b505050505081565b606060008060006101938561053b565b9250925092508080519060200120600160008573ffffffffffffffffffffffffffffffffffffffff1673ffffffffffffffffffffffffffffffffffffffff16815260200190815260200160002060008481526020019081526020016000206040516101fe9190611421565b604051809103902014156103f75760006040518060600160405280602f815260200161183b602f91399050600081905060008390506000815183516102439190611467565b67ffffffffffffffff81111561025c5761025b611151565b5b6040519080825280601f01601f19166020018201604052801561028e5781602001600182028036833780820191505090505b5090506000805b845181101561031d578481815181106102b1576102b06114bd565b5b602001015160f81c60f81b8383806102c8906114ec565b9450815181106102db576102da6114bd565b5b60200101907effffffffffffffffffffffffffffffffffffffffffffffffffffffffffffff1916908160001a9053508080610315906114ec565b915050610295565b5060005b83518110156103a95783818151811061033d5761033c6114bd565b5b602001015160f81c60f81b838380610354906114ec565b945081518110610367576103666114bd565b5b60200101907effffffffffffffffffffffffffffffffffffffffffffffffffffffffffffff1916908160001a90535080806103a1906114ec565b915050610321565b5060008290507fed0f2e75597dc5e04d1f0277d4f8fb4ec0d87ba29afb63a94c39460249313aac816040516103de9190611125565b60405180910390a1809950505050505050505050610432565b6040517f08c379a000000000000000000000000000000000000000000000000000000000815260040161042990611581565b60405180910390fd5b919050565b606081600160003373ffffffffffffffffffffffffffffffffffffffff1673ffffffffffffffffffffffffffffffffffffffff1681526020019081526020016000206000858152602001908152602001600020908051906020019061049d929190610f01565b5060006104a9846105f4565b905060006104b633610755565b905060008183866040516020016104cf939291906115dd565b6040516020818303038152906040529050853373ffffffffffffffffffffffffffffffffffffffff167f01159e42cac244793408c9985dfc48992af740449363305f319adc876db0f0b6836040516105279190611125565b60405180910390a380935050505092915050565b60008060606000602a905060006009905060008183885161055c919061160e565b610566919061160e565b9050600061057688600086610a60565b9050600061058382610b5c565b9050600061059d8a8787896105989190611467565b610a60565b905060006105aa82610e2a565b905060006105da8c888a6105be9190611467565b888a8c6105cb9190611467565b6105d59190611467565b610a60565b90508382829a509a509a5050505050505050509193909250565b6060600082141561063c576040518060400160405280600181526020017f30000000000000000000000000000000000000000000000000000000000000008152509050610750565b600082905060005b6000821461066e578080610657906114ec565b915050600a826106679190611671565b9150610644565b60008167ffffffffffffffff81111561068a57610689611151565b5b6040519080825280601f01601f1916602001820160405280156106bc5781602001600182028036833780820191505090505b5090505b60008514610749576001826106d5919061160e565b9150600a856106e491906116a2565b60306106f09190611467565b60f81b818381518110610706576107056114bd565b5b60200101907effffffffffffffffffffffffffffffffffffffffffffffffffffffffffffff1916908160001a905350600a856107429190611671565b94506106c0565b8093505050505b919050565b606060008273ffffffffffffffffffffffffffffffffffffffff1660001b905060006040518060400160405280601081526020017f303132333435363738396162636465660000000000000000000000000000000081525090506000602a67ffffffffffffffff8111156107cc576107cb611151565b5b6040519080825280601f01601f1916602001820160405280156107fe5781602001600182028036833780820191505090505b5090507f300000000000000000000000000000000000000000000000000000000000000081600081518110610836576108356114bd565b5b60200101907effffffffffffffffffffffffffffffffffffffffffffffffffffffffffffff1916908160001a9053507f78000000000000000000000000000000000000000000000000000000000000008160018151811061089a576108996114bd565b5b60200101907effffffffffffffffffffffffffffffffffffffffffffffffffffffffffffff1916908160001a90535060005b6014811015610a545782600485600c846108e69190611467565b602081106108f7576108f66114bd565b5b1a60f81b7effffffffffffffffffffffffffffffffffffffffffffffffffffffffffffff1916901c60f81c60ff1681518110610936576109356114bd565b5b602001015160f81c60f81b8260028361094f91906116d3565b600261095b9190611467565b8151811061096c5761096b6114bd565b5b60200101907effffffffffffffffffffffffffffffffffffffffffffffffffffffffffffff1916908160001a90535082600f60f81b85600c846109af9190611467565b602081106109c0576109bf6114bd565b5b1a60f81b1660f81c60ff16815181106109dc576109db6114bd565b5b602001015160f81c60f81b826002836109f591906116d3565b6003610a019190611467565b81518110610a1257610a116114bd565b5b60200101907effffffffffffffffffffffffffffffffffffffffffffffffffffffffffffff1916908160001a9053508080610a4c906114ec565b9150506108cc565b50809350505050919050565b6060600084905060008484610a75919061160e565b67ffffffffffffffff811115610a8e57610a8d611151565b5b6040519080825280601f01601f191660200182016040528015610ac05781602001600182028036833780820191505090505b50905060008590505b84811015610b4f57828181518110610ae457610ae36114bd565b5b602001015160f81c60f81b828783610afc919061160e565b81518110610b0d57610b0c6114bd565b5b60200101907effffffffffffffffffffffffffffffffffffffffffffffffffffffffffffff1916908160001a9053508080610b47906114ec565b915050610ac9565b5080925050509392505050565b600080829050600080806000600290505b602a811015610e1d5761010084610b84919061172d565b9350848181518110610b9957610b986114bd565b5b602001015160f81c60f81b60f81c60ff16925084600182610bba9190611467565b81518110610bcb57610bca6114bd565b5b602001015160f81c60f81b60f81c60ff16915060618373ffffffffffffffffffffffffffffffffffffffff1610158015610c1c575060668373ffffffffffffffffffffffffffffffffffffffff1611155b15610c3557605783610c2e919061177b565b9250610ce1565b60418373ffffffffffffffffffffffffffffffffffffffff1610158015610c73575060468373ffffffffffffffffffffffffffffffffffffffff1611155b15610c8c57603783610c85919061177b565b9250610ce0565b60308373ffffffffffffffffffffffffffffffffffffffff1610158015610cca575060398373ffffffffffffffffffffffffffffffffffffffff1611155b15610cdf57603083610cdc919061177b565b92505b5b5b60618273ffffffffffffffffffffffffffffffffffffffff1610158015610d1f575060668273ffffffffffffffffffffffffffffffffffffffff1611155b15610d3857605782610d31919061177b565b9150610de4565b60418273ffffffffffffffffffffffffffffffffffffffff1610158015610d76575060468273ffffffffffffffffffffffffffffffffffffffff1611155b15610d8f57603782610d88919061177b565b9150610de3565b60308273ffffffffffffffffffffffffffffffffffffffff1610158015610dcd575060398273ffffffffffffffffffffffffffffffffffffffff1611155b15610de257603082610ddf919061177b565b91505b5b5b81601084610df2919061172d565b610dfc91906117af565b84610e0791906117af565b9350600281610e169190611467565b9050610b6d565b5082945050505050919050565b6000806000905060005b8351811015610ef7576030848281518110610e5257610e516114bd565b5b602001015160f81c60f81b60f81c60ff1610158015610e9557506039848281518110610e8157610e806114bd565b5b602001015160f81c60f81b60f81c60ff1611155b15610ee4576030848281518110610eaf57610eae6114bd565b5b602001015160f81c60f81b60f81c610ec79190611806565b60ff16600a83610ed791906116d3565b610ee19190611467565b91505b8080610eef906114ec565b915050610e34565b5080915050919050565b828054610f0d90611350565b90600052602060002090601f016020900481019282610f2f5760008555610f76565b82601f10610f4857805160ff1916838001178555610f76565b82800160010185558215610f76579182015b82811115610f75578251825591602001919060010190610f5a565b5b509050610f839190610f87565b5090565b5b80821115610fa0576000816000905550600101610f88565b5090565b6000604051905090565b600080fd5b600080fd5b600073ffffffffffffffffffffffffffffffffffffffff82169050919050565b6000610fe382610fb8565b9050919050565b610ff381610fd8565b8114610ffe57600080fd5b50565b60008135905061101081610fea565b92915050565b6000819050919050565b61102981611016565b811461103457600080fd5b50565b60008135905061104681611020565b92915050565b6000806040838503121561106357611062610fae565b5b600061107185828601611001565b925050602061108285828601611037565b9150509250929050565b600081519050919050565b600082825260208201905092915050565b60005b838110156110c65780820151818401526020810190506110ab565b838111156110d5576000848401525b50505050565b6000601f19601f8301169050919050565b60006110f78261108c565b6111018185611097565b93506111118185602086016110a8565b61111a816110db565b840191505092915050565b6000602082019050818103600083015261113f81846110ec565b905092915050565b600080fd5b600080fd5b7f4e487b7100000000000000000000000000000000000000000000000000000000600052604160045260246000fd5b611189826110db565b810181811067ffffffffffffffff821117156111a8576111a7611151565b5b80604052505050565b60006111bb610fa4565b90506111c78282611180565b919050565b600067ffffffffffffffff8211156111e7576111e6611151565b5b6111f0826110db565b9050602081019050919050565b82818337600083830152505050565b600061121f61121a846111cc565b6111b1565b90508281526020810184848401111561123b5761123a61114c565b5b6112468482856111fd565b509392505050565b600082601f83011261126357611262611147565b5b813561127384826020860161120c565b91505092915050565b60006020828403121561129257611291610fae565b5b600082013567ffffffffffffffff8111156112b0576112af610fb3565b5b6112bc8482850161124e565b91505092915050565b600080604083850312156112dc576112db610fae565b5b60006112ea85828601611037565b925050602083013567ffffffffffffffff81111561130b5761130a610fb3565b5b6113178582860161124e565b9150509250929050565b7f4e487b7100000000000000000000000000000000000000000000000000000000600052602260045260246000fd5b6000600282049050600182168061136857607f821691505b6020821081141561137c5761137b611321565b5b50919050565b600081905092915050565b60008190508160005260206000209050919050565b600081546113af81611350565b6113b98186611382565b945060018216600081146113d457600181146113e557611418565b60ff19831686528186019350611418565b6113ee8561138d565b60005b83811015611410578154818901526001820191506020810190506113f1565b838801955050505b50505092915050565b600061142d82846113a2565b915081905092915050565b7f4e487b7100000000000000000000000000000000000000000000000000000000600052601160045260246000fd5b600061147282611016565b915061147d83611016565b9250827fffffffffffffffffffffffffffffffffffffffffffffffffffffffffffffffff038211156114b2576114b1611438565b5b828201905092915050565b7f4e487b7100000000000000000000000000000000000000000000000000000000600052603260045260246000fd5b60006114f782611016565b91507fffffffffffffffffffffffffffffffffffffffffffffffffffffffffffffffff82141561152a57611529611438565b5b600182019050919050565b7f4365727469666963617465206e6f7420666f756e640000000000000000000000600082015250565b600061156b601583611097565b915061157682611535565b602082019050919050565b6000602082019050818103600083015261159a8161155e565b9050919050565b600081905092915050565b60006115b78261108c565b6115c181856115a1565b93506115d18185602086016110a8565b80840191505092915050565b60006115e982866115ac565b91506115f582856115ac565b915061160182846115ac565b9150819050949350505050565b600061161982611016565b915061162483611016565b92508282101561163757611636611438565b5b828203905092915050565b7f4e487b7100000000000000000000000000000000000000000000000000000000600052601260045260246000fd5b600061167c82611016565b915061168783611016565b92508261169757611696611642565b5b828204905092915050565b60006116ad82611016565b91506116b883611016565b9250826116c8576116c7611642565b5b828206905092915050565b60006116de82611016565b91506116e983611016565b9250817fffffffffffffffffffffffffffffffffffffffffffffffffffffffffffffffff048311821515161561172257611721611438565b5b828202905092915050565b600061173882610fb8565b915061174383610fb8565b92508173ffffffffffffffffffffffffffffffffffffffff04831182151516156117705761176f611438565b5b828202905092915050565b600061178682610fb8565b915061179183610fb8565b9250828210156117a4576117a3611438565b5b828203905092915050565b60006117ba82610fb8565b91506117c583610fb8565b92508273ffffffffffffffffffffffffffffffffffffffff038211156117ee576117ed611438565b5b828201905092915050565b600060ff82169050919050565b6000611811826117f9565b915061181c836117f9565b92508282101561182f5761182e611438565b5b82820390509291505056fe68747470733a2f2f6170692e70696e6174612e636c6f75642f70696e6e696e672f70696e46696c65546f495046532fa26469706673582212208d7559f2010cfc52c67efe00e97221ee2ee47b7409c7f6d775d52fabbdd42c5a64736f6c634300080b0033",
  "linkReferences": {},
  "deployedLinkReferences": {}
}