{
  "_format": "hh-sol-artifact-1",
  "contractName": "Certify",
  "sourceName": "contracts/Certify.sol",
  "abi": [
    {
      "inputs": [],
      "stateMutability": "nonpayable",
      "type": "constructor"
    },
    {
      "anonymous": false,
      "inputs": [
        {
          "indexed": true,
          "internalType": "address",
          "name": "owner",
          "type": "address"
        },
        {
          "indexed": false,
          "internalType": "string",
          "name": "identifier",
          "type": "string"
        },
        {
          "indexed": false,
          "internalType": "string",
          "name": "concatenatedString",
          "type": "string"
        }
      ],
      "name": "CertificateStored",
      "type": "event"
    },
    {
      "anonymous": false,
      "inputs": [
        {
          "indexed": false,
          "internalType": "string",
          "name": "concatenatedString",
          "type": "string"
        }
      ],
      "name": "getCertificate",
      "type": "event"
    },
    {
      "inputs": [
        {
          "internalType": "address",
          "name": "",
          "type": "address"
        },
        {
          "internalType": "string",
          "name": "",
          "type": "string"
        }
      ],
      "name": "certificates",
      "outputs": [
        {
          "internalType": "string",
          "name": "",
          "type": "string"
        }
      ],
      "stateMutability": "view",
      "type": "function"
    },
    {
      "inputs": [
        {
          "internalType": "address",
          "name": "certiOwner",
          "type": "address"
        },
        {
          "internalType": "string",
          "name": "_identifier",
          "type": "string"
        },
        {
          "internalType": "string",
          "name": "_hash",
          "type": "string"
        }
      ],
      "name": "getIPFSHash",
      "outputs": [
        {
          "internalType": "string",
          "name": "_certi",
          "type": "string"
        }
      ],
      "stateMutability": "nonpayable",
      "type": "function"
    },
    {
      "inputs": [
        {
          "internalType": "string",
          "name": "identifier",
          "type": "string"
        },
        {
          "internalType": "string",
          "name": "_hash",
          "type": "string"
        }
      ],
      "name": "storeCertificate",
      "outputs": [
        {
          "internalType": "string",
          "name": "",
          "type": "string"
        }
      ],
      "stateMutability": "nonpayable",
      "type": "function"
    }
  ],
  "bytecode": "0x608060405234801561001057600080fd5b50336000806101000a81548173ffffffffffffffffffffffffffffffffffffffff021916908373ffffffffffffffffffffffffffffffffffffffff1602179055506111d0806100606000396000f3fe608060405234801561001057600080fd5b50600436106100415760003560e01c806363e7e85b14610046578063678d364414610076578063aa135fd3146100a6575b600080fd5b610060600480360381019061005b9190610b64565b6100d6565b60405161006d9190610c48565b60405180910390f35b610090600480360381019061008b9190610c6a565b610199565b60405161009d9190610c48565b60405180910390f35b6100c060048036038101906100bb9190610ce2565b610354565b6040516100cd9190610c48565b60405180910390f35b60016020528160005260406000208180516020810182018051848252602083016020850120818352809550505050505060009150915050805461011890610d9c565b80601f016020809104026020016040519081016040528092919081815260200182805461014490610d9c565b80156101915780601f1061016657610100808354040283529160200191610191565b820191906000526020600020905b81548152906001019060200180831161017457829003601f168201915b505050505081565b60608180519060200120600160003373ffffffffffffffffffffffffffffffffffffffff1673ffffffffffffffffffffffffffffffffffffffff168152602001908152602001600020846040516101f09190610e0a565b908152602001604051809103902060405161020b9190610ec0565b60405180910390201415610254576040517f08c379a000000000000000000000000000000000000000000000000000000000815260040161024b90610f23565b60405180910390fd5b81600160003373ffffffffffffffffffffffffffffffffffffffff1673ffffffffffffffffffffffffffffffffffffffff168152602001908152602001600020846040516102a29190610e0a565b908152602001604051809103902090805190602001906102c3929190610909565b5060006102cf336105fe565b905060008185856040516020016102e893929190610f43565b60405160208183030381529060405290503373ffffffffffffffffffffffffffffffffffffffff167faa15db9b80143f1b3fc123d49131d36d7bd397f919eb3d1ae135ae96d557999f8683604051610341929190610f74565b60405180910390a2809250505092915050565b60608180519060200120600160008673ffffffffffffffffffffffffffffffffffffffff1673ffffffffffffffffffffffffffffffffffffffff168152602001908152602001600020846040516103ab9190610e0a565b90815260200160405180910390206040516103c69190610ec0565b604051809103902014156105bc5760006040518060600160405280602281526020016111796022913990506000819050600084905060008151835161040b9190610fe4565b67ffffffffffffffff81111561042457610423610a39565b5b6040519080825280601f01601f1916602001820160405280156104565781602001600182028036833780820191505090505b5090506000805b84518110156104e5578481815181106104795761047861103a565b5b602001015160f81c60f81b83838061049090611069565b9450815181106104a3576104a261103a565b5b60200101907effffffffffffffffffffffffffffffffffffffffffffffffffffffffffffff1916908160001a90535080806104dd90611069565b91505061045d565b5060005b8351811015610571578381815181106105055761050461103a565b5b602001015160f81c60f81b83838061051c90611069565b94508151811061052f5761052e61103a565b5b60200101907effffffffffffffffffffffffffffffffffffffffffffffffffffffffffffff1916908160001a905350808061056990611069565b9150506104e9565b5060008290507fed0f2e75597dc5e04d1f0277d4f8fb4ec0d87ba29afb63a94c39460249313aac816040516105a69190610c48565b60405180910390a18096505050505050506105f7565b6040517f08c379a00000000000000000000000000000000000000000000000000000000081526004016105ee906110fe565b60405180910390fd5b9392505050565b606060008273ffffffffffffffffffffffffffffffffffffffff1660001b905060006040518060400160405280601081526020017f303132333435363738396162636465660000000000000000000000000000000081525090506000602a67ffffffffffffffff81111561067557610674610a39565b5b6040519080825280601f01601f1916602001820160405280156106a75781602001600182028036833780820191505090505b5090507f3000000000000000000000000000000000000000000000000000000000000000816000815181106106df576106de61103a565b5b60200101907effffffffffffffffffffffffffffffffffffffffffffffffffffffffffffff1916908160001a9053507f7800000000000000000000000000000000000000000000000000000000000000816001815181106107435761074261103a565b5b60200101907effffffffffffffffffffffffffffffffffffffffffffffffffffffffffffff1916908160001a90535060005b60148110156108fd5782600485600c8461078f9190610fe4565b602081106107a05761079f61103a565b5b1a60f81b7effffffffffffffffffffffffffffffffffffffffffffffffffffffffffffff1916901c60f81c60ff16815181106107df576107de61103a565b5b602001015160f81c60f81b826002836107f8919061111e565b60026108049190610fe4565b815181106108155761081461103a565b5b60200101907effffffffffffffffffffffffffffffffffffffffffffffffffffffffffffff1916908160001a90535082600f60f81b85600c846108589190610fe4565b602081106108695761086861103a565b5b1a60f81b1660f81c60ff16815181106108855761088461103a565b5b602001015160f81c60f81b8260028361089e919061111e565b60036108aa9190610fe4565b815181106108bb576108ba61103a565b5b60200101907effffffffffffffffffffffffffffffffffffffffffffffffffffffffffffff1916908160001a90535080806108f590611069565b915050610775565b50809350505050919050565b82805461091590610d9c565b90600052602060002090601f016020900481019282610937576000855561097e565b82601f1061095057805160ff191683800117855561097e565b8280016001018555821561097e579182015b8281111561097d578251825591602001919060010190610962565b5b50905061098b919061098f565b5090565b5b808211156109a8576000816000905550600101610990565b5090565b6000604051905090565b600080fd5b600080fd5b600073ffffffffffffffffffffffffffffffffffffffff82169050919050565b60006109eb826109c0565b9050919050565b6109fb816109e0565b8114610a0657600080fd5b50565b600081359050610a18816109f2565b92915050565b600080fd5b600080fd5b6000601f19601f8301169050919050565b7f4e487b7100000000000000000000000000000000000000000000000000000000600052604160045260246000fd5b610a7182610a28565b810181811067ffffffffffffffff82111715610a9057610a8f610a39565b5b80604052505050565b6000610aa36109ac565b9050610aaf8282610a68565b919050565b600067ffffffffffffffff821115610acf57610ace610a39565b5b610ad882610a28565b9050602081019050919050565b82818337600083830152505050565b6000610b07610b0284610ab4565b610a99565b905082815260208101848484011115610b2357610b22610a23565b5b610b2e848285610ae5565b509392505050565b600082601f830112610b4b57610b4a610a1e565b5b8135610b5b848260208601610af4565b91505092915050565b60008060408385031215610b7b57610b7a6109b6565b5b6000610b8985828601610a09565b925050602083013567ffffffffffffffff811115610baa57610ba96109bb565b5b610bb685828601610b36565b9150509250929050565b600081519050919050565b600082825260208201905092915050565b60005b83811015610bfa578082015181840152602081019050610bdf565b83811115610c09576000848401525b50505050565b6000610c1a82610bc0565b610c248185610bcb565b9350610c34818560208601610bdc565b610c3d81610a28565b840191505092915050565b60006020820190508181036000830152610c628184610c0f565b905092915050565b60008060408385031215610c8157610c806109b6565b5b600083013567ffffffffffffffff811115610c9f57610c9e6109bb565b5b610cab85828601610b36565b925050602083013567ffffffffffffffff811115610ccc57610ccb6109bb565b5b610cd885828601610b36565b9150509250929050565b600080600060608486031215610cfb57610cfa6109b6565b5b6000610d0986828701610a09565b935050602084013567ffffffffffffffff811115610d2a57610d296109bb565b5b610d3686828701610b36565b925050604084013567ffffffffffffffff811115610d5757610d566109bb565b5b610d6386828701610b36565b9150509250925092565b7f4e487b7100000000000000000000000000000000000000000000000000000000600052602260045260246000fd5b60006002820490506001821680610db457607f821691505b60208210811415610dc857610dc7610d6d565b5b50919050565b600081905092915050565b6000610de482610bc0565b610dee8185610dce565b9350610dfe818560208601610bdc565b80840191505092915050565b6000610e168284610dd9565b915081905092915050565b600081905092915050565b60008190508160005260206000209050919050565b60008154610e4e81610d9c565b610e588186610e21565b94506001821660008114610e735760018114610e8457610eb7565b60ff19831686528186019350610eb7565b610e8d85610e2c565b60005b83811015610eaf57815481890152600182019150602081019050610e90565b838801955050505b50505092915050565b6000610ecc8284610e41565b915081905092915050565b7f54686520636572746966696361746520616c7265616479206578697374730000600082015250565b6000610f0d601e83610bcb565b9150610f1882610ed7565b602082019050919050565b60006020820190508181036000830152610f3c81610f00565b9050919050565b6000610f4f8286610dd9565b9150610f5b8285610dd9565b9150610f678284610dd9565b9150819050949350505050565b60006040820190508181036000830152610f8e8185610c0f565b90508181036020830152610fa28184610c0f565b90509392505050565b6000819050919050565b7f4e487b7100000000000000000000000000000000000000000000000000000000600052601160045260246000fd5b6000610fef82610fab565b9150610ffa83610fab565b9250827fffffffffffffffffffffffffffffffffffffffffffffffffffffffffffffffff0382111561102f5761102e610fb5565b5b828201905092915050565b7f4e487b7100000000000000000000000000000000000000000000000000000000600052603260045260246000fd5b600061107482610fab565b91507fffffffffffffffffffffffffffffffffffffffffffffffffffffffffffffffff8214156110a7576110a6610fb5565b5b600182019050919050565b7f4365727469666963617465206e6f7420666f756e640000000000000000000000600082015250565b60006110e8601583610bcb565b91506110f3826110b2565b602082019050919050565b60006020820190508181036000830152611117816110db565b9050919050565b600061112982610fab565b915061113483610fab565b9250817fffffffffffffffffffffffffffffffffffffffffffffffffffffffffffffffff048311821515161561116d5761116c610fb5565b5b82820290509291505056fe68747470733a2f2f676174657761792e70696e6174612e636c6f75642f697066732fa2646970667358221220f4c14a62f60960754e22fdac76c6b2fc9aaf67ca63bc567c6853e9031113026964736f6c634300080b0033",
  "linkReferences": {},
  "deployedLinkReferences": {}
}