{
  "_format": "hh-sol-artifact-1",
  "contractName": "IPFSStorage",
  "sourceName": "contracts/Certify.sol",
  "abi": [
    {
      "inputs": [],
      "stateMutability": "nonpayable",
      "type": "constructor"
    },
    {
      "inputs": [
        {
          "internalType": "address",
          "name": "",
          "type": "address"
        },
        {
          "internalType": "uint256",
          "name": "",
          "type": "uint256"
        }
      ],
      "name": "certificates",
      "outputs": [
        {
          "internalType": "string",
          "name": "",
          "type": "string"
        }
      ],
      "stateMutability": "view",
      "type": "function"
    },
    {
      "inputs": [
        {
          "internalType": "string",
          "name": "identifier",
          "type": "string"
        }
      ],
      "name": "getIPFSHash",
      "outputs": [
        {
          "internalType": "string",
          "name": "_certi",
          "type": "string"
        }
      ],
      "stateMutability": "view",
      "type": "function"
    },
    {
      "inputs": [
        {
          "internalType": "uint256",
          "name": "identifier",
          "type": "uint256"
        },
        {
          "internalType": "string",
          "name": "_hash",
          "type": "string"
        }
      ],
      "name": "storeCertificate",
      "outputs": [
        {
          "internalType": "string",
          "name": "",
          "type": "string"
        }
      ],
      "stateMutability": "nonpayable",
      "type": "function"
    }
  ],
  "bytecode": "0x608060405234801561001057600080fd5b50336000806101000a81548173ffffffffffffffffffffffffffffffffffffffff021916908373ffffffffffffffffffffffffffffffffffffffff160217905550611813806100606000396000f3fe608060405234801561001057600080fd5b50600436106100415760003560e01c806346f3141c146100465780634a5f66c114610076578063779579f2146100a6575b600080fd5b610060600480360381019061005b9190610fc0565b6100d6565b60405161006d9190611099565b60405180910390f35b610090600480360381019061008b91906111f0565b610183565b60405161009d9190611099565b60405180910390f35b6100c060048036038101906100bb9190611239565b6103fa565b6040516100cd9190611099565b60405180910390f35b6001602052816000526040600020602052806000526040600020600091509150508054610102906112c4565b80601f016020809104026020016040519081016040528092919081815260200182805461012e906112c4565b801561017b5780601f106101505761010080835404028352916020019161017b565b820191906000526020600020905b81548152906001019060200180831161015e57829003601f168201915b505050505081565b60606000806000610193856104af565b9250925092508080519060200120600160008573ffffffffffffffffffffffffffffffffffffffff1673ffffffffffffffffffffffffffffffffffffffff16815260200190815260200160002060008481526020019081526020016000206040516101fe9190611395565b604051809103902014156103ba5760006040518060600160405280602f81526020016117af602f913990506000819050600083905060008151835161024391906113db565b67ffffffffffffffff81111561025c5761025b6110c5565b5b6040519080825280601f01601f19166020018201604052801561028e5781602001600182028036833780820191505090505b5090506000805b845181101561031d578481815181106102b1576102b0611431565b5b602001015160f81c60f81b8383806102c890611460565b9450815181106102db576102da611431565b5b60200101907effffffffffffffffffffffffffffffffffffffffffffffffffffffffffffff1916908160001a905350808061031590611460565b915050610295565b5060005b83518110156103a95783818151811061033d5761033c611431565b5b602001015160f81c60f81b83838061035490611460565b94508151811061036757610366611431565b5b60200101907effffffffffffffffffffffffffffffffffffffffffffffffffffffffffffff1916908160001a90535080806103a190611460565b915050610321565b5081985050505050505050506103f5565b6040517f08c379a00000000000000000000000000000000000000000000000000000000081526004016103ec906114f5565b60405180910390fd5b919050565b606081600160003373ffffffffffffffffffffffffffffffffffffffff1673ffffffffffffffffffffffffffffffffffffffff16815260200190815260200160002060008581526020019081526020016000209080519060200190610460929190610e75565b50600061046c84610568565b90506000610479336106c9565b9050600081838660405160200161049293929190611551565b604051602081830303815290604052905080935050505092915050565b60008060606000602a90506000601890506000818388516104d09190611582565b6104da9190611582565b905060006104ea886000866109d4565b905060006104f782610ad0565b905060006105118a87878961050c91906113db565b6109d4565b9050600061051e82610d9e565b9050600061054e8c888a61053291906113db565b888a8c61053f91906113db565b61054991906113db565b6109d4565b90508382829a509a509a5050505050505050509193909250565b606060008214156105b0576040518060400160405280600181526020017f300000000000000000000000000000000000000000000000000000000000000081525090506106c4565b600082905060005b600082146105e25780806105cb90611460565b915050600a826105db91906115e5565b91506105b8565b60008167ffffffffffffffff8111156105fe576105fd6110c5565b5b6040519080825280601f01601f1916602001820160405280156106305781602001600182028036833780820191505090505b5090505b600085146106bd576001826106499190611582565b9150600a856106589190611616565b603061066491906113db565b60f81b81838151811061067a57610679611431565b5b60200101907effffffffffffffffffffffffffffffffffffffffffffffffffffffffffffff1916908160001a905350600a856106b691906115e5565b9450610634565b8093505050505b919050565b606060008273ffffffffffffffffffffffffffffffffffffffff1660001b905060006040518060400160405280601081526020017f303132333435363738396162636465660000000000000000000000000000000081525090506000602a67ffffffffffffffff8111156107405761073f6110c5565b5b6040519080825280601f01601f1916602001820160405280156107725781602001600182028036833780820191505090505b5090507f3000000000000000000000000000000000000000000000000000000000000000816000815181106107aa576107a9611431565b5b60200101907effffffffffffffffffffffffffffffffffffffffffffffffffffffffffffff1916908160001a9053507f78000000000000000000000000000000000000000000000000000000000000008160018151811061080e5761080d611431565b5b60200101907effffffffffffffffffffffffffffffffffffffffffffffffffffffffffffff1916908160001a90535060005b60148110156109c85782600485600c8461085a91906113db565b6020811061086b5761086a611431565b5b1a60f81b7effffffffffffffffffffffffffffffffffffffffffffffffffffffffffffff1916901c60f81c60ff16815181106108aa576108a9611431565b5b602001015160f81c60f81b826002836108c39190611647565b60026108cf91906113db565b815181106108e0576108df611431565b5b60200101907effffffffffffffffffffffffffffffffffffffffffffffffffffffffffffff1916908160001a90535082600f60f81b85600c8461092391906113db565b6020811061093457610933611431565b5b1a60f81b1660f81c60ff16815181106109505761094f611431565b5b602001015160f81c60f81b826002836109699190611647565b600361097591906113db565b8151811061098657610985611431565b5b60200101907effffffffffffffffffffffffffffffffffffffffffffffffffffffffffffff1916908160001a90535080806109c090611460565b915050610840565b50809350505050919050565b60606000849050600084846109e99190611582565b67ffffffffffffffff811115610a0257610a016110c5565b5b6040519080825280601f01601f191660200182016040528015610a345781602001600182028036833780820191505090505b50905060008590505b84811015610ac357828181518110610a5857610a57611431565b5b602001015160f81c60f81b828783610a709190611582565b81518110610a8157610a80611431565b5b60200101907effffffffffffffffffffffffffffffffffffffffffffffffffffffffffffff1916908160001a9053508080610abb90611460565b915050610a3d565b5080925050509392505050565b600080829050600080806000600290505b602a811015610d915761010084610af891906116a1565b9350848181518110610b0d57610b0c611431565b5b602001015160f81c60f81b60f81c60ff16925084600182610b2e91906113db565b81518110610b3f57610b3e611431565b5b602001015160f81c60f81b60f81c60ff16915060618373ffffffffffffffffffffffffffffffffffffffff1610158015610b90575060668373ffffffffffffffffffffffffffffffffffffffff1611155b15610ba957605783610ba291906116ef565b9250610c55565b60418373ffffffffffffffffffffffffffffffffffffffff1610158015610be7575060468373ffffffffffffffffffffffffffffffffffffffff1611155b15610c0057603783610bf991906116ef565b9250610c54565b60308373ffffffffffffffffffffffffffffffffffffffff1610158015610c3e575060398373ffffffffffffffffffffffffffffffffffffffff1611155b15610c5357603083610c5091906116ef565b92505b5b5b60618273ffffffffffffffffffffffffffffffffffffffff1610158015610c93575060668273ffffffffffffffffffffffffffffffffffffffff1611155b15610cac57605782610ca591906116ef565b9150610d58565b60418273ffffffffffffffffffffffffffffffffffffffff1610158015610cea575060468273ffffffffffffffffffffffffffffffffffffffff1611155b15610d0357603782610cfc91906116ef565b9150610d57565b60308273ffffffffffffffffffffffffffffffffffffffff1610158015610d41575060398273ffffffffffffffffffffffffffffffffffffffff1611155b15610d5657603082610d5391906116ef565b91505b5b5b81601084610d6691906116a1565b610d709190611723565b84610d7b9190611723565b9350600281610d8a91906113db565b9050610ae1565b5082945050505050919050565b6000806000905060005b8351811015610e6b576030848281518110610dc657610dc5611431565b5b602001015160f81c60f81b60f81c60ff1610158015610e0957506039848281518110610df557610df4611431565b5b602001015160f81c60f81b60f81c60ff1611155b15610e58576030848281518110610e2357610e22611431565b5b602001015160f81c60f81b60f81c610e3b919061177a565b60ff16600a83610e4b9190611647565b610e5591906113db565b91505b8080610e6390611460565b915050610da8565b5080915050919050565b828054610e81906112c4565b90600052602060002090601f016020900481019282610ea35760008555610eea565b82601f10610ebc57805160ff1916838001178555610eea565b82800160010185558215610eea579182015b82811115610ee9578251825591602001919060010190610ece565b5b509050610ef79190610efb565b5090565b5b80821115610f14576000816000905550600101610efc565b5090565b6000604051905090565b600080fd5b600080fd5b600073ffffffffffffffffffffffffffffffffffffffff82169050919050565b6000610f5782610f2c565b9050919050565b610f6781610f4c565b8114610f7257600080fd5b50565b600081359050610f8481610f5e565b92915050565b6000819050919050565b610f9d81610f8a565b8114610fa857600080fd5b50565b600081359050610fba81610f94565b92915050565b60008060408385031215610fd757610fd6610f22565b5b6000610fe585828601610f75565b9250506020610ff685828601610fab565b9150509250929050565b600081519050919050565b600082825260208201905092915050565b60005b8381101561103a57808201518184015260208101905061101f565b83811115611049576000848401525b50505050565b6000601f19601f8301169050919050565b600061106b82611000565b611075818561100b565b935061108581856020860161101c565b61108e8161104f565b840191505092915050565b600060208201905081810360008301526110b38184611060565b905092915050565b600080fd5b600080fd5b7f4e487b7100000000000000000000000000000000000000000000000000000000600052604160045260246000fd5b6110fd8261104f565b810181811067ffffffffffffffff8211171561111c5761111b6110c5565b5b80604052505050565b600061112f610f18565b905061113b82826110f4565b919050565b600067ffffffffffffffff82111561115b5761115a6110c5565b5b6111648261104f565b9050602081019050919050565b82818337600083830152505050565b600061119361118e84611140565b611125565b9050828152602081018484840111156111af576111ae6110c0565b5b6111ba848285611171565b509392505050565b600082601f8301126111d7576111d66110bb565b5b81356111e7848260208601611180565b91505092915050565b60006020828403121561120657611205610f22565b5b600082013567ffffffffffffffff81111561122457611223610f27565b5b611230848285016111c2565b91505092915050565b600080604083850312156112505761124f610f22565b5b600061125e85828601610fab565b925050602083013567ffffffffffffffff81111561127f5761127e610f27565b5b61128b858286016111c2565b9150509250929050565b7f4e487b7100000000000000000000000000000000000000000000000000000000600052602260045260246000fd5b600060028204905060018216806112dc57607f821691505b602082108114156112f0576112ef611295565b5b50919050565b600081905092915050565b60008190508160005260206000209050919050565b60008154611323816112c4565b61132d81866112f6565b9450600182166000811461134857600181146113595761138c565b60ff1983168652818601935061138c565b61136285611301565b60005b8381101561138457815481890152600182019150602081019050611365565b838801955050505b50505092915050565b60006113a18284611316565b915081905092915050565b7f4e487b7100000000000000000000000000000000000000000000000000000000600052601160045260246000fd5b60006113e682610f8a565b91506113f183610f8a565b9250827fffffffffffffffffffffffffffffffffffffffffffffffffffffffffffffffff03821115611426576114256113ac565b5b828201905092915050565b7f4e487b7100000000000000000000000000000000000000000000000000000000600052603260045260246000fd5b600061146b82610f8a565b91507fffffffffffffffffffffffffffffffffffffffffffffffffffffffffffffffff82141561149e5761149d6113ac565b5b600182019050919050565b7f4365727469666963617465206e6f7420666f756e640000000000000000000000600082015250565b60006114df60158361100b565b91506114ea826114a9565b602082019050919050565b6000602082019050818103600083015261150e816114d2565b9050919050565b600081905092915050565b600061152b82611000565b6115358185611515565b935061154581856020860161101c565b80840191505092915050565b600061155d8286611520565b91506115698285611520565b91506115758284611520565b9150819050949350505050565b600061158d82610f8a565b915061159883610f8a565b9250828210156115ab576115aa6113ac565b5b828203905092915050565b7f4e487b7100000000000000000000000000000000000000000000000000000000600052601260045260246000fd5b60006115f082610f8a565b91506115fb83610f8a565b92508261160b5761160a6115b6565b5b828204905092915050565b600061162182610f8a565b915061162c83610f8a565b92508261163c5761163b6115b6565b5b828206905092915050565b600061165282610f8a565b915061165d83610f8a565b9250817fffffffffffffffffffffffffffffffffffffffffffffffffffffffffffffffff0483118215151615611696576116956113ac565b5b828202905092915050565b60006116ac82610f2c565b91506116b783610f2c565b92508173ffffffffffffffffffffffffffffffffffffffff04831182151516156116e4576116e36113ac565b5b828202905092915050565b60006116fa82610f2c565b915061170583610f2c565b925082821015611718576117176113ac565b5b828203905092915050565b600061172e82610f2c565b915061173983610f2c565b92508273ffffffffffffffffffffffffffffffffffffffff03821115611762576117616113ac565b5b828201905092915050565b600060ff82169050919050565b60006117858261176d565b91506117908361176d565b9250828210156117a3576117a26113ac565b5b82820390509291505056fe68747470733a2f2f6170692e70696e6174612e636c6f75642f70696e6e696e672f70696e46696c65546f495046532fa264697066735822122041730e0b84c21ff759f7c6e5fcbe24bfbe397b766b43001c08a06cf9a056a0b464736f6c634300080b0033",
  "linkReferences": {},
  "deployedLinkReferences": {}
}